{
  "_format": "hh-sol-artifact-1",
  "contractName": "Pinboard",
  "sourceName": "contracts/Pinboard.sol",
  "abi": [
    {
      "inputs": [
        {
          "internalType": "address",
          "name": "_feeWallet",
          "type": "address"
        },
        {
          "internalType": "uint256",
          "name": "_feePercent",
          "type": "uint256"
        }
      ],
      "stateMutability": "nonpayable",
      "type": "constructor"
    },
    {
      "anonymous": false,
      "inputs": [
        {
          "indexed": true,
          "internalType": "address",
          "name": "previousOwner",
          "type": "address"
        },
        {
          "indexed": true,
          "internalType": "address",
          "name": "newOwner",
          "type": "address"
        }
      ],
      "name": "OwnershipTransferred",
      "type": "event"
    },
    {
      "inputs": [
        {
          "internalType": "string",
          "name": "_name",
          "type": "string"
        },
        {
          "internalType": "string",
          "name": "_role",
          "type": "string"
        },
        {
          "internalType": "address",
          "name": "_wallet",
          "type": "address"
        },
        {
          "internalType": "uint256",
          "name": "_rate",
          "type": "uint256"
        }
      ],
      "name": "addPerson",
      "outputs": [],
      "stateMutability": "nonpayable",
      "type": "function"
    },
    {
      "inputs": [],
      "name": "listPeople",
      "outputs": [
        {
          "components": [
            {
              "internalType": "string",
              "name": "name",
              "type": "string"
            },
            {
              "internalType": "string",
              "name": "role",
              "type": "string"
            },
            {
              "internalType": "address",
              "name": "wallet",
              "type": "address"
            },
            {
              "internalType": "uint256",
              "name": "rate",
              "type": "uint256"
            }
          ],
          "internalType": "struct Pinboard.Person[]",
          "name": "",
          "type": "tuple[]"
        }
      ],
      "stateMutability": "view",
      "type": "function"
    },
    {
      "inputs": [],
      "name": "owner",
      "outputs": [
        {
          "internalType": "address",
          "name": "",
          "type": "address"
        }
      ],
      "stateMutability": "view",
      "type": "function"
    },
    {
      "inputs": [
        {
          "internalType": "address",
          "name": "_wallet",
          "type": "address"
        },
        {
          "internalType": "uint16",
          "name": "_hours",
          "type": "uint16"
        }
      ],
      "name": "payOne",
      "outputs": [],
      "stateMutability": "payable",
      "type": "function"
    },
    {
      "inputs": [
        {
          "internalType": "address",
          "name": "_wallet",
          "type": "address"
        }
      ],
      "name": "removePerson",
      "outputs": [],
      "stateMutability": "nonpayable",
      "type": "function"
    },
    {
      "inputs": [],
      "name": "renounceOwnership",
      "outputs": [],
      "stateMutability": "nonpayable",
      "type": "function"
    },
    {
      "inputs": [
        {
          "internalType": "address",
          "name": "newOwner",
          "type": "address"
        }
      ],
      "name": "transferOwnership",
      "outputs": [],
      "stateMutability": "nonpayable",
      "type": "function"
    },
    {
      "inputs": [
        {
          "internalType": "string",
          "name": "_name",
          "type": "string"
        },
        {
          "internalType": "string",
          "name": "_role",
          "type": "string"
        },
        {
          "internalType": "address",
          "name": "_wallet",
          "type": "address"
        },
        {
          "internalType": "uint256",
          "name": "_rate",
          "type": "uint256"
        }
      ],
      "name": "updatePerson",
      "outputs": [],
      "stateMutability": "nonpayable",
      "type": "function"
    },
    {
      "inputs": [],
      "name": "withdraw",
      "outputs": [],
      "stateMutability": "nonpayable",
      "type": "function"
    }
  ],
  "bytecode": "0x60806040523480156200001157600080fd5b5060405162001dc838038062001dc88339818101604052810190620000379190620001a1565b620000576200004b620000a760201b60201c565b620000af60201b60201c565b8060018190555081600260006101000a81548173ffffffffffffffffffffffffffffffffffffffff021916908373ffffffffffffffffffffffffffffffffffffffff160217905550505062000254565b600033905090565b60008060009054906101000a900473ffffffffffffffffffffffffffffffffffffffff169050816000806101000a81548173ffffffffffffffffffffffffffffffffffffffff021916908373ffffffffffffffffffffffffffffffffffffffff1602179055508173ffffffffffffffffffffffffffffffffffffffff168173ffffffffffffffffffffffffffffffffffffffff167f8be0079c531659141344cd1fd0a4f28419497f9722a3daafe3b4186f6b6457e060405160405180910390a35050565b600081519050620001848162000220565b92915050565b6000815190506200019b816200023a565b92915050565b60008060408385031215620001b557600080fd5b6000620001c58582860162000173565b9250506020620001d8858286016200018a565b9150509250929050565b6000620001ef82620001f6565b9050919050565b600073ffffffffffffffffffffffffffffffffffffffff82169050919050565b6000819050919050565b6200022b81620001e2565b81146200023757600080fd5b50565b620002458162000216565b81146200025157600080fd5b50565b611b6480620002646000396000f3fe6080604052600436106100865760003560e01c8063715018a611610059578063715018a61461011d578063796276e3146101345780638da5cb5b14610150578063de6c3b791461017b578063f2fde38b146101a657610086565b806331fde5161461008b5780633767fb44146100b45780633ccfd60b146100dd5780634af82e50146100f4575b600080fd5b34801561009757600080fd5b506100b260048036038101906100ad91906113d2565b6101cf565b005b3480156100c057600080fd5b506100db60048036038101906100d691906113d2565b610438565b005b3480156100e957600080fd5b506100f26105af565b005b34801561010057600080fd5b5061011b6004803603810190610116919061136d565b610674565b005b34801561012957600080fd5b50610132610861565b005b61014e60048036038101906101499190611396565b6108e9565b005b34801561015c57600080fd5b50610165610d59565b6040516101729190611627565b60405180910390f35b34801561018757600080fd5b50610190610d82565b60405161019d9190611642565b60405180910390f35b3480156101b257600080fd5b506101cd60048036038101906101c8919061136d565b610fe1565b005b6101d76110d9565b73ffffffffffffffffffffffffffffffffffffffff166101f5610d59565b73ffffffffffffffffffffffffffffffffffffffff161461024b576040517f08c379a0000000000000000000000000000000000000000000000000000000008152600401610242906116a4565b60405180910390fd5b60005b6003805490508161ffff161015610431578273ffffffffffffffffffffffffffffffffffffffff1660038261ffff16815481106102b4577f4e487b7100000000000000000000000000000000000000000000000000000000600052603260045260246000fd5b906000526020600020906004020160020160009054906101000a900473ffffffffffffffffffffffffffffffffffffffff1673ffffffffffffffffffffffffffffffffffffffff16141561041e57600060405180608001604052808781526020018681526020018573ffffffffffffffffffffffffffffffffffffffff1681526020018481525090508060038361ffff168154811061037c577f4e487b7100000000000000000000000000000000000000000000000000000000600052603260045260246000fd5b906000526020600020906004020160008201518160000190805190602001906103a69291906111a5565b5060208201518160010190805190602001906103c39291906111a5565b5060408201518160020160006101000a81548173ffffffffffffffffffffffffffffffffffffffff021916908373ffffffffffffffffffffffffffffffffffffffff1602179055506060820151816003015590505050610431565b808061042990611950565b91505061024e565b5050505050565b6104406110d9565b73ffffffffffffffffffffffffffffffffffffffff1661045e610d59565b73ffffffffffffffffffffffffffffffffffffffff16146104b4576040517f08c379a00000000000000000000000000000000000000000000000000000000081526004016104ab906116a4565b60405180910390fd5b600060405180608001604052808681526020018581526020018473ffffffffffffffffffffffffffffffffffffffff168152602001838152509050600381908060018154018082558091505060019003906000526020600020906004020160009091909190915060008201518160000190805190602001906105379291906111a5565b5060208201518160010190805190602001906105549291906111a5565b5060408201518160020160006101000a81548173ffffffffffffffffffffffffffffffffffffffff021916908373ffffffffffffffffffffffffffffffffffffffff1602179055506060820151816003015550505050505050565b6105b76110d9565b73ffffffffffffffffffffffffffffffffffffffff166105d5610d59565b73ffffffffffffffffffffffffffffffffffffffff161461062b576040517f08c379a0000000000000000000000000000000000000000000000000000000008152600401610622906116a4565b60405180910390fd5b3373ffffffffffffffffffffffffffffffffffffffff166108fc479081150290604051600060405180830381858888f19350505050158015610671573d6000803e3d6000fd5b50565b61067c6110d9565b73ffffffffffffffffffffffffffffffffffffffff1661069a610d59565b73ffffffffffffffffffffffffffffffffffffffff16146106f0576040517f08c379a00000000000000000000000000000000000000000000000000000000081526004016106e7906116a4565b60405180910390fd5b60005b6003805490508161ffff16101561085d578173ffffffffffffffffffffffffffffffffffffffff1660038261ffff1681548110610759577f4e487b7100000000000000000000000000000000000000000000000000000000600052603260045260246000fd5b906000526020600020906004020160020160009054906101000a900473ffffffffffffffffffffffffffffffffffffffff1673ffffffffffffffffffffffffffffffffffffffff16141561084a5760038161ffff16815481106107e5577f4e487b7100000000000000000000000000000000000000000000000000000000600052603260045260246000fd5b906000526020600020906004020160008082016000610804919061122b565b600182016000610814919061122b565b6002820160006101000a81549073ffffffffffffffffffffffffffffffffffffffff02191690556003820160009055505061085d565b808061085590611950565b9150506106f3565b5050565b6108696110d9565b73ffffffffffffffffffffffffffffffffffffffff16610887610d59565b73ffffffffffffffffffffffffffffffffffffffff16146108dd576040517f08c379a00000000000000000000000000000000000000000000000000000000081526004016108d4906116a4565b60405180910390fd5b6108e760006110e1565b565b6108f16110d9565b73ffffffffffffffffffffffffffffffffffffffff1661090f610d59565b73ffffffffffffffffffffffffffffffffffffffff1614610965576040517f08c379a000000000000000000000000000000000000000000000000000000000815260040161095c906116a4565b60405180910390fd5b61096d61126b565b60005b6003805490508161ffff161015610c19578373ffffffffffffffffffffffffffffffffffffffff1660038261ffff16815481106109d6577f4e487b7100000000000000000000000000000000000000000000000000000000600052603260045260246000fd5b906000526020600020906004020160020160009054906101000a900473ffffffffffffffffffffffffffffffffffffffff1673ffffffffffffffffffffffffffffffffffffffff161415610c065760038161ffff1681548110610a62577f4e487b7100000000000000000000000000000000000000000000000000000000600052603260045260246000fd5b9060005260206000209060040201604051806080016040529081600082018054610a8b906118ed565b80601f0160208091040260200160405190810160405280929190818152602001828054610ab7906118ed565b8015610b045780601f10610ad957610100808354040283529160200191610b04565b820191906000526020600020905b815481529060010190602001808311610ae757829003601f168201915b50505050508152602001600182018054610b1d906118ed565b80601f0160208091040260200160405190810160405280929190818152602001828054610b49906118ed565b8015610b965780601f10610b6b57610100808354040283529160200191610b96565b820191906000526020600020905b815481529060010190602001808311610b7957829003601f168201915b505050505081526020016002820160009054906101000a900473ffffffffffffffffffffffffffffffffffffffff1673ffffffffffffffffffffffffffffffffffffffff1673ffffffffffffffffffffffffffffffffffffffff1681526020016003820154815250509150610c19565b8080610c1190611950565b915050610970565b50600081606001518361ffff16610c309190611807565b90506000600154606483610c4491906117d6565b610c4e9190611807565b90508082610c5c9190611780565b341015610c9e576040517f08c379a0000000000000000000000000000000000000000000000000000000008152600401610c9590611664565b60405180910390fd5b826040015173ffffffffffffffffffffffffffffffffffffffff166108fc839081150290604051600060405180830381858888f19350505050158015610ce8573d6000803e3d6000fd5b50600260009054906101000a900473ffffffffffffffffffffffffffffffffffffffff1673ffffffffffffffffffffffffffffffffffffffff166108fc829081150290604051600060405180830381858888f19350505050158015610d51573d6000803e3d6000fd5b505050505050565b60008060009054906101000a900473ffffffffffffffffffffffffffffffffffffffff16905090565b6060610d8c6110d9565b73ffffffffffffffffffffffffffffffffffffffff16610daa610d59565b73ffffffffffffffffffffffffffffffffffffffff1614610e00576040517f08c379a0000000000000000000000000000000000000000000000000000000008152600401610df7906116a4565b60405180910390fd5b6003805480602002602001604051908101604052809291908181526020016000905b82821015610fd85783829060005260206000209060040201604051806080016040529081600082018054610e55906118ed565b80601f0160208091040260200160405190810160405280929190818152602001828054610e81906118ed565b8015610ece5780601f10610ea357610100808354040283529160200191610ece565b820191906000526020600020905b815481529060010190602001808311610eb157829003601f168201915b50505050508152602001600182018054610ee7906118ed565b80601f0160208091040260200160405190810160405280929190818152602001828054610f13906118ed565b8015610f605780601f10610f3557610100808354040283529160200191610f60565b820191906000526020600020905b815481529060010190602001808311610f4357829003601f168201915b505050505081526020016002820160009054906101000a900473ffffffffffffffffffffffffffffffffffffffff1673ffffffffffffffffffffffffffffffffffffffff1673ffffffffffffffffffffffffffffffffffffffff16815260200160038201548152505081526020019060010190610e22565b50505050905090565b610fe96110d9565b73ffffffffffffffffffffffffffffffffffffffff16611007610d59565b73ffffffffffffffffffffffffffffffffffffffff161461105d576040517f08c379a0000000000000000000000000000000000000000000000000000000008152600401611054906116a4565b60405180910390fd5b600073ffffffffffffffffffffffffffffffffffffffff168173ffffffffffffffffffffffffffffffffffffffff1614156110cd576040517f08c379a00000000000000000000000000000000000000000000000000000000081526004016110c490611684565b60405180910390fd5b6110d6816110e1565b50565b600033905090565b60008060009054906101000a900473ffffffffffffffffffffffffffffffffffffffff169050816000806101000a81548173ffffffffffffffffffffffffffffffffffffffff021916908373ffffffffffffffffffffffffffffffffffffffff1602179055508173ffffffffffffffffffffffffffffffffffffffff168173ffffffffffffffffffffffffffffffffffffffff167f8be0079c531659141344cd1fd0a4f28419497f9722a3daafe3b4186f6b6457e060405160405180910390a35050565b8280546111b1906118ed565b90600052602060002090601f0160209004810192826111d3576000855561121a565b82601f106111ec57805160ff191683800117855561121a565b8280016001018555821561121a579182015b828111156112195782518255916020019190600101906111fe565b5b50905061122791906112a9565b5090565b508054611237906118ed565b6000825580601f106112495750611268565b601f01602090049060005260206000209081019061126791906112a9565b5b50565b60405180608001604052806060815260200160608152602001600073ffffffffffffffffffffffffffffffffffffffff168152602001600081525090565b5b808211156112c25760008160009055506001016112aa565b5090565b60006112d96112d4846116e9565b6116c4565b9050828152602081018484840111156112f157600080fd5b6112fc8482856118ab565b509392505050565b60008135905061131381611ae9565b92915050565b600082601f83011261132a57600080fd5b813561133a8482602086016112c6565b91505092915050565b60008135905061135281611b00565b92915050565b60008135905061136781611b17565b92915050565b60006020828403121561137f57600080fd5b600061138d84828501611304565b91505092915050565b600080604083850312156113a957600080fd5b60006113b785828601611304565b92505060206113c885828601611343565b9150509250929050565b600080600080608085870312156113e857600080fd5b600085013567ffffffffffffffff81111561140257600080fd5b61140e87828801611319565b945050602085013567ffffffffffffffff81111561142b57600080fd5b61143787828801611319565b935050604061144887828801611304565b925050606061145987828801611358565b91505092959194509250565b600061147183836115ae565b905092915050565b61148281611861565b82525050565b61149181611861565b82525050565b60006114a28261172a565b6114ac818561174d565b9350836020820285016114be8561171a565b8060005b858110156114fa57848403895281516114db8582611465565b94506114e683611740565b925060208a019950506001810190506114c2565b50829750879550505050505092915050565b600061151782611735565b611521818561175e565b93506115318185602086016118ba565b61153a81611a37565b840191505092915050565b6000611552601c8361176f565b915061155d82611a48565b602082019050919050565b600061157560268361176f565b915061158082611a71565b604082019050919050565b600061159860208361176f565b91506115a382611ac0565b602082019050919050565b600060808301600083015184820360008601526115cb828261150c565b915050602083015184820360208601526115e5828261150c565b91505060408301516115fa6040860182611479565b50606083015161160d6060860182611618565b508091505092915050565b611621816118a1565b82525050565b600060208201905061163c6000830184611488565b92915050565b6000602082019050818103600083015261165c8184611497565b905092915050565b6000602082019050818103600083015261167d81611545565b9050919050565b6000602082019050818103600083015261169d81611568565b9050919050565b600060208201905081810360008301526116bd8161158b565b9050919050565b60006116ce6116df565b90506116da828261191f565b919050565b6000604051905090565b600067ffffffffffffffff82111561170457611703611a08565b5b61170d82611a37565b9050602081019050919050565b6000819050602082019050919050565b600081519050919050565b600081519050919050565b6000602082019050919050565b600082825260208201905092915050565b600082825260208201905092915050565b600082825260208201905092915050565b600061178b826118a1565b9150611796836118a1565b9250827fffffffffffffffffffffffffffffffffffffffffffffffffffffffffffffffff038211156117cb576117ca61197b565b5b828201905092915050565b60006117e1826118a1565b91506117ec836118a1565b9250826117fc576117fb6119aa565b5b828204905092915050565b6000611812826118a1565b915061181d836118a1565b9250817fffffffffffffffffffffffffffffffffffffffffffffffffffffffffffffffff04831182151516156118565761185561197b565b5b828202905092915050565b600061186c82611881565b9050919050565b600061ffff82169050919050565b600073ffffffffffffffffffffffffffffffffffffffff82169050919050565b6000819050919050565b82818337600083830152505050565b60005b838110156118d85780820151818401526020810190506118bd565b838111156118e7576000848401525b50505050565b6000600282049050600182168061190557607f821691505b60208210811415611919576119186119d9565b5b50919050565b61192882611a37565b810181811067ffffffffffffffff8211171561194757611946611a08565b5b80604052505050565b600061195b82611873565b915061ffff8214156119705761196f61197b565b5b600182019050919050565b7f4e487b7100000000000000000000000000000000000000000000000000000000600052601160045260246000fd5b7f4e487b7100000000000000000000000000000000000000000000000000000000600052601260045260246000fd5b7f4e487b7100000000000000000000000000000000000000000000000000000000600052602260045260246000fd5b7f4e487b7100000000000000000000000000000000000000000000000000000000600052604160045260246000fd5b6000601f19601f8301169050919050565b7f4e6f7420656e6f7567682045544820746f2070617920706572736f6e00000000600082015250565b7f4f776e61626c653a206e6577206f776e657220697320746865207a65726f206160008201527f6464726573730000000000000000000000000000000000000000000000000000602082015250565b7f4f776e61626c653a2063616c6c6572206973206e6f7420746865206f776e6572600082015250565b611af281611861565b8114611afd57600080fd5b50565b611b0981611873565b8114611b1457600080fd5b50565b611b20816118a1565b8114611b2b57600080fd5b5056fea26469706673582212201dd49ad9ad694eafc8149fb560591590bb85b83022e425e6529619e5406ca37464736f6c63430008040033",
  "linkReferences": {},
  "deployedLinkReferences": {}
}